:020000040800F2
:1000000000800120BD0800080D0900080D09000846
:100010000D0900080D0900080D0900080000000086
:100020000000000000000000000000000D090008B2
:100030000D090008000000000D09000877070008FE
:100040000D0900080D0900080D0900080D09000838
:100050000D0900080D0900080D0900080D09000828
:100060000D0900080D0900080D0900080D09000818
:100070000D0900080D0900080D0900080D09000808
:100080000D0900080D0900080D0900080000000016
:100090000000000000000000000000000D09000842
:1000A0000D0900080D0900080D0900080D090008D8
:1000B0000D090008850700080D0900080D09000852
:1000C0000D0900080D0900080D0900080D090008B8
:1000D0000D0900080D0900080D09000800000000C6
:1000E0000D0900080D0900080D09000800000000B6
:1000F0000000000000000000000000000D090008E2
:10010000000000000D0900080D0900080D09000895
:1001100000000000000000000000000000000000DF
:100120000D0900080D0900080D0900080D09000857
:100130000D090008000000000000000000000000A1
:100140000000000000000000000000000D09000891
:100150000D0900080D0900080D0900080D09000827
:100160000D0900080D090008000000000000000053
:10017000000000000000000000000000000000007F
:10018000000000000D090008000000000000000051
:040190000D0900084D
:1001940010B5054C237833B9044B13B10448AFF3BD
:1001A40000800123237010BD0C000020000000001B
:1001B4005809000808B5034B1BB103490348AFF3C2
:1001C400008008BD0000000010000020580900084D
:1001D40010B504460E4B18784FF47A73B3FBF0F362
:1001E4000C4A1068B0FBF3F000F090F868B90F2CDB
:1001F40001D901200AE0002221464FF0FF3000F02F
:1002040043F8034B5C60002000E0012010BD00BFF8
:10021400000000200800002008B50B4B1A6842F4C7
:1002240000721A601A6842F480621A601A6842F412
:1002340080721A60032000F015F80020FFF7C8FF51
:1002440000F0F4FA002008BD003C0240034A1168A3
:10025400034B1B780B441360704700BF2800002039
:1002640000000020074AD36823F4E0631B041B0C3E
:10027400000200F4E060184340F0BF6040F4003036
:10028400D060704700ED00E030B4174BDB68C3F377
:100294000223C3F10704042C28BF04241D1D062DCA
:1002A40018D9033B4FF0FF3505FA04F421EA0401A1
:1002B400994005FA03F322EA0303194300280BDBF0
:1002C4000901C9B200F1604000F5614080F80013F3
:1002D40030BC70470023E5E700F00F000901C9B204
:1002E400024B1954F4E700BF00ED00E014ED00E008
:1002F400002807DB00F01F02400901239340024A53
:1003040042F82030704700BF00E100E00138B0F14E
:10031400807F0AD2064B5860064AF02182F82310E7
:100324000020986007221A6070470120704700BFC0
:1003340010E000E000ED00E0704708B5FFF7FCFFB7
:1003440008BD000000230F2B00F2C580F0B583B078
:1003540039E0042200E00022AA403A4302345E4D10
:1003640045F824205D4A1468F24302EA04054F6804
:1003740017F4803F01D046EA0405584C25606468B0
:1003840002EA04054F6817F4003F01D046EA040569
:10039400524C6560A46802EA04054F6817F4801F94
:1003A40001D046EA04054D4CA560E46822404D683E
:1003B40015F4001F01D046EA0402484CE260013300
:1003C4000F2B00F2868001229A400C6804EA020690
:1003D400B242F4D14C68651E012D03D9112C01D011
:1003E400122C12D185685F000324BC4025EA040561
:1003F400CC68BC402C438460456825EA02054C68FF
:10040400C4F300129A402A434260C4685F00032286
:10041400BA40D24314408D68BD402543C5604C6842
:10042400022C01D0122C13D1DD08083550F825E038
:1004340003F007044FEA840C0F2404FA0CF42EEAA8
:10044400040E0C6904FA0CF444EA0E0440F8254046
:10045400046822404C6804F00304BC402243026058
:100464004A6812F0805FAAD0002201921C4A546CA0
:1004740044F480445464526C02F480420192019A20
:100484009C08A51C144A52F8257003F00302950039
:100494000F22AA4027EA0207124A90423FF45BAFB8
:1004A40002F5806290420ED002F5806290420CD038
:1004B40002F5806290420AD002F5806290423FF4D5
:1004C40048AF072248E7012246E7022244E7032215
:1004D40042E703B0F0BD704700380140003C0140E2
:1004E4000038024000000240436931EA030301D0AE
:1004F400816170470904816170470268D36843F0E1
:100504000103D3600268936803F00703062B03D04A
:10051400136843F00103136000207047704770476D
:100524007047704710B5044603681A6912F0020F49
:1005340011D0DA6812F0020F0DD06FF002021A61C6
:100544000123037703689B6913F0030F70D0FFF74F
:10055400E6FF0023237723681A6912F0040F12D0F0
:10056400DA6812F0040F0ED06FF004021A6102234D
:10057400237723689B6913F4407F5FD02046FFF7FD
:10058400CEFF0023237723681A6912F0080F12D0D4
:10059400DA6812F0080F0ED06FF008021A61042313
:1005A40023772368DB6913F0030F4ED02046FFF74F
:1005B400B6FF0023237723681A6912F0100F12D0B4
:1005C400DA6812F0100F0ED06FF010021A610823CF
:1005D40023772368DB6913F4407F3DD02046FFF77F
:1005E4009EFF0023237723681A6912F0010F03D0BA
:1005F400DA6812F0010F36D123681A6912F0800FFD
:1006040003D0DA6812F0800F34D123681A6912F02B
:10061400400F03D0DA6812F0400F32D123681A6910
:1006240012F0200F03D0DA6812F0200F30D110BD81
:10063400FFF774FF2046FFF773FF8AE72046FFF7B2
:100644006DFF2046FFF76CFF9BE72046FFF766FF30
:100654002046FFF765FFACE72046FFF75FFF204623
:10066400FFF75EFFBDE76FF001021A61204600F05C
:100674008FF8C1E76FF080021A61204600F078F825
:10068400C3E76FF040021A612046FFF74AFFC5E74F
:100694006FF020021A61204600F069F8C7E70000F5
:1006A4000368254A90420ED0B0F1804F0BD0A2F5DA
:1006B4007C42904207D002F58062904203D002F55A
:1006C4008062904203D123F070034A6813431A4AAC
:1006D40090421AD0B0F1804F17D0A2F57C429042DC
:1006E40013D002F5806290420FD002F580629042EE
:1006F4000BD002F59A32904207D002F58062904204
:1007040003D002F58062904203D123F44073CA6897
:10071400134323F080034A69134303608B68C36265
:100724000B688362044B984202D0012343617047F3
:100734000B690363F9E700BF00000140A8B110B5DD
:10074400044690F83D305BB1022384F83D30211D0E
:100754002068FFF7A5FF012384F83D30002010BD79
:1007640080F83C3000F080F8EEE7012070477047D5
:10077400704708B5FFF76AFDFFF7DFFD08BD00000D
:1007840008B50248FFF7CEFE08BD00BF2C000020CC
:1007940008B520210148FFF7A7FE08BD000002406C
:1007A40000B587B0002100910A4B1A6B42F0010298
:1007B4001A631B6B03F001030093009B0123029354
:1007C40020230193039101A90348FFF7BBFD07B060
:1007D4005DF804FB0038024000000240FEE7000020
:1007E40008B50948094B0360182343604FF6FF130B
:1007F400C3600023036183608361FFF79FFF00B937
:1008040008BDFFF7EBFF00BF2C00002000040040F0
:1008140008B5FFF701FDFFF7C3FFFFF7E1FF02484B
:10082400FFF76BFE002008BD2C00002008B5032054
:10083400FFF718FD0B4A536A43F4E0235362002286
:1008440011466FF00B00FFF71FFD002211466FF0F9
:100854000A00FFF719FD002211466FF00900FFF7A7
:1008640013FD08BD00ED00E010B582B00024019432
:10087400094B1A6C42F002021A641B6C03F0020367
:100884000193019B1D20FFF733FD22460F211D20FC
:10089400FFF7FAFC02B010BD00380240054BD3F854
:1008A400882042F47002C3F888204FF000629A60F6
:1008B400704700BF00ED00E0DFF834D0002103E012
:1008C4000C4B5B58435004310B480C4B42189A4272
:1008D400F6D30B4A02E0002342F8043B094B9A4248
:1008E400F9D3FFF7DBFF00F011F8FFF791FF704732
:1008F4000080012078090008000000200C0000207E
:100904000C0000206C000020FEE7000070B50D4EC6
:100914000D4CA41BA4100025A54209D10B4E0C4C70
:1009240000F018F8A41BA4100025A54205D170BD41
:1009340056F8253098470135EEE756F825309847A4
:100944000135F2E770090008700900087009000811
:1009540074090008F8B500BFF8BC08BC9E4670478F
:0C096400F8B500BFF8BC08BC9E46704708
:04097000B9010008C1
:0409740095010008E1
:0C09780001000000100000000024F4004A
:04000005080008BD2A
:00000001FF
